:100000000C9430000C944D000C944D000C944D0059
:100010000C944D000C944D000C944D000C94730006
:100020000C944D000C944D000C944D000C944D001C
:100030000C944D000C944F000C944D000C944D000A
:100040000C944D000C944D000C944D000C944D00FC
:100050000C944D006364696E6F70737578585B0023
:1000600011241FBECFE5D8E0DEBFCDBF12E0A0E671
:10007000B0E0E6EAFEE102C005900D92AC33B107B4
:10008000D9F714E0ACE3B2E001C01D92A230B10791
:10009000E1F70E94AA000C94510F0C9400001F92EB
:1000A0000F920FB60F9211242F933F934F935F93AC
:1000B0006F937F938F939F93AF93BF93EF93FF9330
:1000C0000E944507FF91EF91BF91AF919F918F9152
:1000D0007F916F915F914F913F912F910F900FBE44
:1000E0000F901F9018951F920F920FB60F92112428
:1000F0002F933F934F935F936F937F938F939F9330
:10010000AF93BF93EF93FF930E94A304FF91EF91EE
:10011000BF91AF919F918F917F916F915F914F911F
:100120003F912F910F900FBE0F901F9018958091C7
:100130005E03882331F48091650280933C028091B4
:100140005F030E943F070E94BD060E9432030E9487
:10015000EF0508952F923F924F925F926F927F9298
:100160008F929F92AF92BF92CF92DF92EF92FF92C7
:100170000F931F93CF93DF930E9447040E943E0486
:100180000E9435040E94BD060E9458040E94670424
:1001900080E00E94B3020E94D6050E94EF05809184
:1001A0006402813029F40E9494060E94960604C0DD
:1001B0000E9498060E9492060E94A2062090780152
:1001C00030907901C091AF01D091B00140906001B1
:1001D000509061016090EC017090ED01A090EF01F2
:1001E000B090F0018090DE019090DF01C090480156
:1001F000D0904901E0902F01F0903001009146012C
:1002000010914701809164028130E1F40E94490518
:1002100090916B039336A1F080916502891769F084
:10022000B49905C0C101BE0142E00E949A058091C7
:100230006B03809365020E9497000E949A0602C099
:100240000E949E0680913F02813021F410923F026D
:1002500020E00FC080914002813021F410924002D2
:1002600021E007C080914102813049F5109241029E
:1002700022E08091650290E0FC01EE0FFF1FE80F85
:10028000F91FE959FD4FE20FF11DE752FF4F2081A1
:100290002336A9F0FC01EF59FC4F8081821779F0D9
:1002A000B49906C0C201BE0142E00E949A0507C08F
:1002B00020830E94BD060E9432030E94EF059091A8
:1002C00042029130F9F4109242028091640281302E
:1002D00059F482E0809364020E949A060E94980674
:1002E0000E949206C30107C0909364020E94940684
:1002F0000E949606C401B50142E00E949A050E9440
:10030000320339C0809144028130A9F41092440232
:1003100080916402823059F4B49B19C080916502C7
:10032000893010F48F5F1DC0109265021CC0C70198
:10033000B80143E01EC0809143028130E1F4109285
:10034000430280916402823089F4B49903C0C601EB
:10035000BE010EC080916502882311F0815001C05A
:1003600089E0809365020E94970005C0C701B8012B
:1003700042E00E949A0580914502813021F410925A
:1003800045020E94EF0580914602813031F41092BF
:1003900046020E94B4060E94EF0580914702813018
:1003A00021F4109247020E94BD060E942D082ACF18
:1003B00084B38F7084BBA99AA89881E08A95F1F7DD
:1003C00021E0AA9A822F8A95F1F783B3807F922F3A
:1003D0009A95F1F7AA98922F9A95F1F7AA9A922FE7
:1003E0009A95F1F793B3922F9A95F1F7AA98922FD5
:1003F0009A95F1F787FDE5CFA99884B3806F84BB08
:100400000895382F662311F4A89801C0A89A21E016
:10041000822F8A95F1F7AA9A85B3932F907F8F70D8
:10042000982B95BB822F8A95F1F7AA98822F8A95EF
:10043000F1F7AA9A85B33295307F8F70832B85BBF5
:10044000822F8A95F1F7AA982A95F1F70E94D80190
:100450000895CF93DF93EC0110C0853251F42196BB
:1004600088818053883028F085E261E00E94010293
:10047000888161E00E94010221968881882369F7C2
:10048000DF91CF910895EF92FF920F931F93DF9327
:10049000CF9300D000D00F92CDB7DEB79C018B0177
:1004A000FE01319685E0DF011D928A95E9F7FE0194
:1004B00035960DC0C9016AE070E00E94EB088083A8
:1004C000C9016AE070E00E94EB089B013197211599
:1004D000310581F7BFEF0F3F1B0779F420E030E0D3
:1004E000AE014F5F5F4F02C02F5F3F4FFA01E20F37
:1004F000F31F80818823C1F304C025E030E0201B76
:10050000310B7E010894E11CF11CE20EF31E8901FF
:1005100009C0F70181917F01805D61E00E940102C5
:100520000F5F1F4F05301105A4F30F900F900F9030
:100530000F900F90CF91DF911F910F91FF90EF904F
:100540000895883178F4623031F0633031F06130F1
:1005500029F4806403C0885E01C0885A806860E026
:100560000E94010208951F93182F80E395E70197D9
:10057000F1F784B3806F84BBA29AA09AA19A85B345
:100580008F7085BBAA98A998A89881E0982F9A9512
:10059000F1F7AA9AAD9A982F9A95F1F7AA988A95A9
:1005A000F1F70E94D8011C60812F60E00E940102D7
:1005B00088E260E00E94010280E060E00E94A10207
:1005C000812F60E00E9401021F91089580914A02EC
:1005D000882379F080916003882359F02091A0004E
:1005E000233639F090E080916502821719F491E08A
:1005F00001C090E0892F0895E82F80914A02882356
:1006000061F0E33651F0F0E0EE0FFF1FE85EFC4FC3
:10061000E08180913D02E82301C0E0E08E2F089543
:100620001F93E0916502F0E0EF59FC4F1081133603
:10063000A9F00E94E602882389F480914A02882367
:1006400011F4E0E00CC0E12FF0E0EE0FFF1FE85ED8
:10065000FC4FE08180913D02E82309F0E1E08E2F1C
:100660001F9108958091660290E024E031E0829F1E
:10067000B001839F700D929F700D112466507F4FC3
:1006800081E693E04AE050E00E94E70D85E091E0CA
:10069000609164020E94F70D86E091E0609165022E
:1006A0000E94F70D84E091E0609166020E94F70DD0
:1006B0000895882309F042C087E692E060E070E088
:1006C00047E050E00E94E70D8EE692E067E070E0C0
:1006D0004CE350E00E94E70D8AEA92E063E470E0A8
:1006E0004EE650E00E94E70D88E193E061EB70E098
:1006F00044E150E00E94E70D8CE293E065EC70E08D
:1007000044E150E00E94E70D80E493E069ED70E081
:100710004EE150E00E94E70D88EF90E060915F03AA
:100720000E94F70D87EF90E060915E030E94F70D45
:1007300089EF90E0609160030E94F70D08951F9388
:1007400087E692E060E070E047E050E00E94CF0D65
:100750008EE692E067E070E04CE350E00E94CF0D3F
:100760008AEA92E063E470E04EE650E00E94CF0D2A
:1007700088E193E061EB70E044E150E00E94CF0D2E
:100780008CE293E065EC70E044E150E00E94CF0D14
:1007900080E493E069ED70E04EE150E00E94CF0DFF
:1007A00081E693E06AEF70E04AE050E00E94CF0DEE
:1007B00088EF90E00E94DF0D80935F0387EF90E069
:1007C0000E94DF0D80935E0389EF90E00E94DF0DB1
:1007D0008093600386E091E00E94DF0D182F8093E4
:1007E000650280933C0285E091E00E94DF0D8093DA
:1007F00064021A3030F4E0E4F3E0DF01919623E67E
:1008000012C010926502F7CF22838C918A3010F0CB
:1008100080818C93992309F42C933396119683E06D
:10082000EE35F80791F080818A3010F491E002C033
:10083000208390E081818A3010F491E001C021830F
:1008400082818A3008F791E0E0CFE4EBF2E0A3E7A1
:10085000B2E010821C923B96169683E0E232F807D3
:10086000C1F710926D021F91089584E091E00E94FB
:10087000DF0D809366020E949F03089586B1856014
:1008800086B93E9A359A3D9A379A369A089587B333
:10089000807E87BB88B38F6188BB81B3837081BB47
:1008A00082B38C6F82BB8AB38C6F8ABBA39A089584
:1008B0008EB588608EBD89B7806189BF78948FE3DB
:1008C0009CE99BBD8ABD8EB581608EBD08958AB1BD
:1008D00088618AB980B5866880BD10BC89E189B914
:1008E000579A78940895F89424E6829FC0011124C1
:1008F0009093500280934F0278940895982FF89423
:10090000882359F081E08093490284E6989FC001D2
:10091000112490934E0280934D0278940895F89498
:100920001092490210924E0210924D02789408954E
:10093000F89484EF91E090934C0280934B020E94D4
:10094000A40678940895CF93DF9380914902813073
:1009500061F5B4990AC09091650280913C029817A4
:1009600021F010924E0210924D0280914D02909112
:100970004E020097A9F4109249029091650280916D
:100980003C02981719F40E94A8060FC090933C02ED
:1009900081E08093470280915F030E943F0705C07A
:1009A000019790934E0280934D02809151028F5F88
:1009B00080935102883C20F00E947F0810925102DF
:1009C00080914B0290914C02009771F001979093A7
:1009D0004C0280934B02892B39F40E94A20610929C
:1009E0004A0281E0809346020E947A07C1EAD0E081
:1009F000AFE3B2E0E2E5F2E032E021E080B39881DB
:100A0000892379F4808191810196918380838A3052
:100A1000910511F42C9307C0883C910521F43C9377
:100A200002C01182108221961196329680E0C73A58
:100A3000D80721F720914F0230915002211531053E
:100A400061F02130310519F481E080934502215095
:100A500030403093500220934F0280915E028F5FAE
:100A600080935E028E3131F480914802882311F028
:100A70000E94980680915E028C3341F410925E02CF
:100A800080914802882311F00E949606DF91CF9151
:100A9000089586B38F7011F483E601C0815080936E
:100AA0006B0380916B038A3088F095B1A7EAB0E0C0
:100AB000E0E08C91891720F4EF5F1196E930C9F7D7
:100AC000F0E0E055FF4F808180936B0380916B03D2
:100AD0008A3018F083E680936B030895DF92EF92DB
:100AE000FF920F931F938B017A01D82EDD0CDD0C42
:100AF000DD0CCB010E94DF0826E030E0A901481B95
:100B00005109CA0162E070E00E94EB088D2D860F4A
:100B100061E00E94A102C7010E942902C8010E944F
:100B20002902C7010E9429021F910F91FF90EF90A7
:100B3000DF900895CF92DF92EF92FF920F931F9371
:100B4000CF93DF93EC017B01C42E0E94DF08082FB6
:100B5000893118F5C7010E94DF08182F8931E8F4A0
:100B600081E060E00E94010206958CE0D82E8D2D78
:100B7000801B60E00E94A102CE010E94290216950E
:100B80008D2D811B61E00E94A102C7010E942902F4
:100B9000CC2019F08C2D0E947304DF91CF911F910E
:100BA0000F91FF90EF90DF90CF90089581E060E08B
:100BB0000E94010260910F02709110028091FC016D
:100BC0009091FD0140E00E949A0580E29EE424E6B7
:100BD00030E0F9013197F1F70197D9F70895AF9215
:100BE000BF92DF92EF92FF920F931F93DF93CF9309
:100BF0000F92CDB7DEB781E060E00E94010280E095
:100C000060E00E94A10287E692E00E942902E09142
:100C10006502F0E0EF59FC4FF08043E6F41629F44A
:100C20000091C5011091C60110C08F2D0E94FC02D9
:100C3000882339F48BE0F89E8001112406551D4F5E
:100C400004C00091D2011091D301C8010E94DF08B5
:100C50002AE030E0F901E81BF109CF0162E070E021
:100C60000E94EB08862F895F60E00E94A102C80104
:100C70000E94290282E160E00E94A102E0916502E7
:100C8000F0E0EE0FFF1FE85FFE4F808191810E9430
:100C9000290200E010E066E0D62EE02E8091650289
:100CA00090E0FC01EE0FFF1FE80FF91FE00FF11FAE
:100CB000E05CFC4F9081933631F4802F69EB70E05B
:100CC0004AEB50E01DC09F1529F44CEBA42E40E0E8
:100CD000B42E04C03EEBA32E30E0B32E892F9983AF
:100CE0000E94FC029981882321F020ECA22E20E0B2
:100CF000B22E9D9DB001112462597D4F8E2DA5010C
:100D00000E946E050F5F1F4F0330110531F60F90E3
:100D1000CF91DF911F910F91FF90EF90DF90BF90E7
:100D2000AF900895DA9A0895DA980895DB9A0895B5
:100D3000DB98089510924802DB9A089581E0809331
:100D400048020895DC9A0895DC980895AB9A0895B6
:100D50000E941003813021F080914902813011F40A
:100D6000AB9A0895AB9808950E941003882319F454
:100D70000E94A8060895AB9A0895CF93DF93AB9A8B
:100D80000E947F08E0916502CE2FD0E0FE01EE0FB9
:100D9000FF1FE45DFC4F808191819C0140E050E0A9
:100DA000337040705070EAE0220F331F441F551F0C
:100DB000EA95D1F781E090E000903C0202C0880FF4
:100DC000991F0A94E2F7AA2797FDA095BA2F282B1E
:100DD000392B4A2B5B2BCF59DC4FE881E336A1F04E
:100DE000F0E0EE0FFF1FE85EFC4F80819181A0E0F4
:100DF000B0E064E1880F991FAA1FBB1F6A95D1F765
:100E0000282B392B4A2B5B2BF894DE9882E4982F01
:100E10009A95F1F7DF988A95F1F76FE170E0E2E4D7
:100E2000DA01C901062E04C0B695A7959795879556
:100E30000A94D2F781709070892B11F0DD9A01C06D
:100E4000DD988E2F8A95F1F7DE9A8E2F8A95F1F72D
:100E5000DE98615070408FEF6F3F780709F7DF9A97
:100E600088EC8A95F1F7DD98DF98789488E99AE321
:100E70000197F1F70E94B406DF91CF91089588237E
:100E800019F0AB9A0E947E040895CF93DF939CB132
:100E900080916202823358F5E82FF0E0E459FC4F6C
:100EA0009083E82FEF5FE09362029A30D1F4809153
:100EB00063028823B1F4ACE6B3E0CEE9D3E0F0E01E
:100EC0009F012A0F3B1F02C08D918993A217B30780
:100ED000D9F7E356FC4F108281E0809363021092B1
:100EE000620280916202823310F010926202DF91FE
:100EF000CF91089520916102222399F05D9BFECF4E
:100F000080916002E82FF0E0E053FC4F90819CB9A3
:100F10008F5F80936002821721F41092600210921A
:100F200061020895582FFB0190E004C0819185175C
:100F300019F09F5F9417D0F3892F08950F931F9393
:100F4000182F092F0E94DF08582FF89490E0409145
:100F5000610222E330E0241B310982179307A4F4D5
:100F6000812F902F9C01D90120E00CC0809161025B
:100F7000E82FF0E0E053FC4F9D9190838F5F8093CA
:100F800061022F5F251790F378941F910F910895B8
:100F90000F931F93DF93CF9300D00F92CDB7DEB79F
:100FA000882309F052C00EE913E0C8010E94DF084F
:100FB000883009F04AC02DB73EB7285030400FB6F0
:100FC000F8943EBF0FBE2DBFEDB7FEB73196ADB75B
:100FD000BEB712961C930E93119781E192E0938312
:100FE0008283CE01019695838483CE0102969783F6
:100FF00086830E9443092DB73EB7285F3F4F0FB647
:10100000F8943EBF0FBE2DBF8230F9F449814A30BB
:10101000E0F48091A000841769F420913D023091A2
:101020003E028A819B812817390721F480914A0268
:10103000882319F481E080935F024093A0008A81A5
:101040009B8190933E0280933D020F900F900F90F2
:10105000CF91DF911F910F910895809163028823B2
:1010600009F44CC08EE993E00E94DF08823018F446
:1010700010926302089580919E03843411F430E04D
:101080000DC0803511F431E009C0833411F432E031
:1010900005C0803211F034E001C033E040919F037D
:1010A00020E091E0E22FF0E0EC5CFD4F80818417BE
:1010B00039F0892F8F5F883021F0292F982FF2CFB8
:1010C000922F332311F080E004C0892F0E94C807BB
:1010D00081E010926302882339F0F8940E9498040A
:1010E00081E080934A02789480915F02882331F0F6
:1010F0000E94B4060E94EF0510925F0208950F93BC
:101100001F93DF93CF93CDB7DEB72A970FB6F8942E
:10111000DEBF0FBECDBF80916502482F50E0FA01BF
:10112000EF59FC4FE081E33619F420E030E007C0CE
:10113000F0E0EE0FFF1FE85EFC4F208131818DB79C
:101140009EB70E970FB6F8949EBF0FBE8DBFEDB73A
:10115000FEB731968E010F5F1F4FADB7BEB7129627
:101160001C930E9311978AE090E0938382838FE122
:1011700092E09583848384E490E09783868383E57B
:1011800090E09187808753874287358724870E9424
:1011900012098DB79EB70E960FB6F8949EBF0FBE7C
:1011A0008DBFC8010E949E072A960FB6F894DEBF35
:1011B0000FBECDBFCF91DF911F910F910895AC016C
:1011C00020E001C02F5FFA01E20FF11D808188232A
:1011D000C9F7822F089597FB092E07260AD077FDBD
:1011E00004D00CD006D000201AF4709561957F4F82
:1011F0000895F6F7909581959F4F0895AA1BBB1B04
:1012000051E107C0AA1FBB1FA617B70710F0A61B06
:10121000B70B881F991F5A95A9F780959095BC0127
:10122000CD010895AEE0B0E0E8E1F9E00C94280FBC
:101230000D891E898F89988D97FF02C080E090E804
:1012400001979E838D831A83098386E08C839E0198
:10125000255E3F4FCE010196698D7A8DA9010E94CE
:101260005D094D815E8157FD0AC02F813885421787
:1012700053070CF49A01020F131FF80110822E96E7
:10128000E4E00C94440FAEE0B0E0E9E4F9E00C9443
:101290002A0F85E08C838B899C899A8389839E01A0
:1012A000295E3F4FCE0101966D897E89A9010E947A
:1012B000BE0C2E96E2E00C94460FABE0B0E0E3E605
:1012C000F9E00C941A0F3C012B015A01FC01178222
:1012D0001682838181FD03C06FEF7FEFC6C19AE064
:1012E000892E1E010894211C311CF3012381F20177
:1012F00023FD859123FF81912F01882309F4B2C139
:10130000853239F423FD859123FF81912F018532A8
:1013100029F490E0B3010E94730EE7CF982FFF24C9
:10132000EE249924FFE1FF15D0F09B3269F09C3246
:1013300028F4903259F0933291F40EC09D3249F066
:10134000903369F441E024C052E0F52A84E0F82AA1
:1013500028C098E0F92A25C0E0E1FE2A22C0F7FC67
:1013600029C0892F80538A3070F4F6FE05C0989CFE
:10137000902C1124980E15C0E89CE02C1124E80E46
:10138000F0E2FF2A0EC09E3229F4F6FC6BC140E465
:10139000F42A07C09C3619F450E8F52A02C09836A2
:1013A00049F4F20123FD959123FF91912F01992397
:1013B00009F0B8CF892F8554833018F080528330DC
:1013C00038F444E050E0A40EB51E5FE359830FC02B
:1013D000933631F0933779F0933509F056C020C039
:1013E000F5018081898342E050E0A40EB51E6101C1
:1013F00001E010E012C0F501C080D180F6FC03C00E
:101400006FEF7FEF02C0692D70E042E050E0A40E64
:10141000B51EC6010E94260E8C015FE7F52214C09E
:10142000F501C080D180F6FC03C06FEF7FEF02C0F2
:10143000692D70E042E050E0A40EB51EC6010E9486
:101440001B0E8C0150E8F52AF3FE07C01AC080E29B
:1014500090E0B3010E94730EEA948E2D90E008177D
:101460001907A8F30EC0F601F7FC8591F7FE8191EC
:101470006F0190E0B3010E94730EE110EA940150F5
:1014800010400115110579F7EAC0943611F099362C
:1014900069F5F7FE08C0F501208131814281538151
:1014A00084E090E00AC0F501808191819C0144278D
:1014B00037FD4095542F82E090E0A80EB91E9FE6BC
:1014C000F92257FF09C050954095309521953F4F1F
:1014D0004F4F5F4FE0E8FE2ACA01B901A1012AE09F
:1014E00030E00E94B90ED82ED21840C0953729F4AA
:1014F0001F2D1F7E2AE030E01DC01F2D197F9F3653
:1015000061F0903720F4983509F0ACC00FC09037E7
:1015100039F0983709F0A6C004C028E030E00AC0CE
:10152000106114FD146020E130E004C014FD166069
:1015300020E132E017FF08C0F501608171818281EE
:10154000938144E050E008C0F50180819181BC01A5
:1015500080E090E042E050E0A40EB51EA1010E94A0
:10156000B90ED82ED2188FE7F82EF122F6FE0BC056
:101570005EEFF522D91438F4F4FE07C0F2FC05C082
:101580008FEEF82202C01D2D01C0192DF4FE0DC0F2
:10159000FE01ED0DF11D8081803319F499EEF922E1
:1015A00008C01F5FF2FE05C003C08F2D867809F0CA
:1015B0001F5F0F2DF3FC14C0F0FE0FC01E1510F0BE
:1015C0009D2C0BC09D2C9E0C911A1E2D06C080E2F6
:1015D00090E0B3010E94730E1F5F1E15C0F304C09C
:1015E0001E1510F4E11A01C0EE2404FF0FC080E3C1
:1015F00090E0B3010E94730E02FF1DC001FD03C005
:1016000088E790E00EC088E590E00BC0802F8678D8
:1016100091F001FF02C08BE201C080E2F7FC8DE295
:1016200090E0B3010E94730E06C080E390E0B30126
:101630000E94730E9A94D914C0F3DA94F101ED0D5F
:10164000F11D808190E0B3010E94730EDD20A9F7A7
:1016500006C080E290E0B3010E94730EEA94EE208F
:10166000C1F743CEF30166817781CB012B96E2E18E
:101670000C94360FFC0120FD08C023FD05C022FF9D
:1016800002C073836283518340830895EF92FF9277
:101690000F931F9344FF02C033E011C046FF02C006
:1016A00034E00DC0DB01FC01AA0FBB1FEE1FFF1FC2
:1016B0001094D1F76A0F7B1F8E1F9F1F31E0660FBA
:1016C000771F881F991F3150D1F77B018C01E20EE3
:1016D000F11C011D111DA8019701B701CA011F913D
:1016E0000F91FF90EF9008950F931F93CF93DF9387
:1016F0008C01C8010E94310EEC0197FD08C00E94C8
:10170000080E892BB1F7CE01B8010E949F0ECE01C1
:10171000DF91CF911F910F910895A0E0B0E0E3E930
:10172000FBE00C94220FEC01C62E5A01122F0E94EE
:10173000310EAC018B3219F08D3251F41068CA941D
:1017400009F46DC0CE010E94310EAC0197FD67C057
:101750006DEFD62ED1228D2D807301F54033F1F43B
:10176000CA9409F447C0CE010E94310EAC0197FD26
:1017700041C082E0D82A483711F0483559F480E456
:10178000D82ACA94B9F1CE010E94310EAC01992336
:101790002CF430C0D6FC02C080E1D82AEE24FF240D
:1017A0008701242F2053283088F0D4FC09C02A3028
:1017B00068F0D6FE05C02F7D822F8151863028F03B
:1017C000CA01BE010E949F0E12C02750C801B70176
:1017D0004D2D0E94460B7B018C0182E0D82ACA94D1
:1017E00061F0CE010E94310EAC0197FFDACFD1FC3F
:1017F00004C015C0EE24FF248701D7FE08C0109551
:101800000095F094E094E11CF11C011D111DC5012F
:10181000B801A7012D2D0E943A0B81E001C080E0A4
:10182000CDB7DEB7EAE00C943E0FA0E2B0E0EBE10A
:10183000FCE00C941E0F6C01A62E8A017901FE01BA
:10184000319680E2DF011D928A95E9F770E030E081
:1018500060E040E050E04F01A1E0B0E0F60183819C
:10186000F70183FD259183FF21917F01222309F454
:101870007EC02E3519F44115510569F1872F90E08E
:101880008417950744F42D3551F12D3221F433237B
:1018900029F431E021C0332309F4622F322F832F42
:1018A000869586958695F401E80FF11D832F877044
:1018B0003D0102C0660C771C8A95E2F7208126293B
:1018C0002083361711F430E007C0361710F43F5F5D
:1018D000E6CF3150E4CF71E04F5F5F4FBFCF33238E
:1018E00019F08E8180628E83772359F0FE01319644
:1018F0009E012F5D3F4F808180958193E217F30712
:10190000D1F7BB24B3944E010894811C911CC601ED
:101910000E94310EAC0197FD22C086958695869572
:10192000F401E80FF11D808190E09A01277030707A
:1019300002C0959587952A95E2F780FD05C0CA01FA
:10194000B6010E949F0E0BC00115110519F0D801B8
:101950004D938D01AA94BB24AA20C9F602C0BB20D6
:1019600031F40115110529F0F801108202C0EE24AE
:10197000FF24C701A096EEE00C943A0FA0E0B0E07F
:10198000E4ECFCE00C941E0F5C016B013A01FC01DD
:10199000178216828824EAC0812F90E00E94080EE8
:1019A000892B21F0C5010E94740BE0C0153249F467
:1019B000F601F3FC6591F3FE61916F01653269F404
:1019C00015E2C5010E94310E97FDDCC0181709F41D
:1019D000CDC0B5010E949F0EDAC06A3219F0162FF1
:1019E00000E006C0F3FC1591F3FE11916F0101E0D8
:1019F00099240FC00260692D70E080E090E040E221
:101A00000E94460B962EF601F3FC1591F3FE119100
:101A10006F01212F20532A3068F301FD03C0992460
:101A20009A9403C0992009F4B2C0183621F01C36EC
:101A300099F4F6010BC0F601F3FC6591F3FE619198
:101A4000683619F06F01162F07C008600460F3FCB8
:101A50001591F3FE11916F01112309F498C084E5EB
:101A600090E0612F70E00E94100E892B09F48FC066
:101A7000802F00FF03C0EE24FF2407C0F301E080A5
:101A8000F18022E030E0620E731E1E3651F4F50143
:101A90004681578160E070E0C701202F0E943A0B19
:101AA00065C0133691F481FD02C099249394C50159
:101AB0000E94310E97FD66C0E114F10419F0F701A0
:101AC00081937F019A9499F74FC01B3559F4C50152
:101AD000692DA70196010E94150C6C01009709F071
:101AE00043C03DC0C5010E94740B97FD4BC01F361B
:101AF00059F1103728F4143629F1193639F527C071
:101B0000133719F0153711F51DC0C5010E94310EAC
:101B1000EC0197FD11C00E94080E892B29F0CE011F
:101B2000B5010E949F0E08C0E114F10419F0F701FD
:101B3000C1937F019A9449F7E114F104A9F0F701E8
:101B4000108212C0006203C0006101C00064C501C0
:101B5000692DA701202F0E948D0B882329F4F50100
:101B60008381807379F413C000FF8394F501F380BF
:101B7000F601F3FC1591F3FE11916F01112309F0A9
:101B80000BCF05C0882019F42FEF3FEF02C0282D9E
:101B900030E0C901CDB7DEB7EEE00C943A0FDC01BE
:101BA000CB01FC01E199FECF06C0FFBBEEBBE09A82
:101BB00031960DB20D9241505040B8F70895E19919
:101BC000FECF9FBB8EBBE09A99278DB30895DC01B1
:101BD000A40FB51F4150504048F0CB01840F951F12
:101BE0002E910E94F80D41505040D0F70895262FB5
:101BF000E199FECF9FBB8EBBE09A01970DB2021612
:101C000031F02DBB0FB6F894E29AE19A0FBE089519
:101C100091110DC1803219F089508550D0F7089587
:101C2000FC010590061621F00020D9F7C0010895A7
:101C30003197CF010895FC0105906150704001106B
:101C4000D8F7809590958E0F9F1F0895FC016150E5
:101C5000704001900110D8F7809590958E0F9F1FCE
:101C60000895CF93DF93EC014B8140FF1AC046FFEC
:101C70000AC04F7B4B838E819F8101969F838E8309
:101C80008A81282F2BC042FF13C0E881F98180810F
:101C9000282F332727FD30952115310529F440627F
:101CA0004B832FEF3FEF1BC03196F983E88311C0C0
:101CB000EA85FB85CE0109959C0197FF0AC09B81AF
:101CC0002F5F3F4F11F080E201C080E1892B8B83B1
:101CD000E8CF8E819F8101969F838E8330E0C9017A
:101CE000DF91CF9108950F931F93CF93DF938C01D2
:101CF000EB018B8181FF1BC082FF0DC02E813F81D4
:101D00008C819D812817390764F4E881F98101935A
:101D1000F983E88306C0E885F985802F0995892B2A
:101D200031F48E819F8101969F838E8302C00FEFD5
:101D30001FEFC801DF91CF911F910F9108959C0172
:101D4000FB01838180FF11C086FD0FC09FEF2F3FF5
:101D5000390759F0228380648F7D83838681978140
:101D600001979783868330E002C02FEF3FEFC901D0
:101D70000895FA01AA27283051F1203181F1E89421
:101D80006F936E7F6E5F7F4F8F4F9F4FAF4FB1E06E
:101D90003ED0B4E03CD0670F781F891F9A1FA11D69
:101DA000680F791F8A1F911DA11D6A0F711D811D6A
:101DB000911DA11D20D009F468943F912AE0269F2F
:101DC00011243019305D3193DEF6CF010895462F8E
:101DD0004770405D4193B3E00FD0C9F7F6CF462F6F
:101DE0004F70405D4A3318F0495D31FD40524193D8
:101DF00002D0A9F7EACFB4E0A69597958795779595
:101E00006795BA95C9F700976105710508959B011B
:101E1000AC010A2E06945795479537952795BA95A4
:101E2000C9F7620F731F841F951FA01D089599277E
:101E3000882708952F923F924F925F926F927F92E0
:101E40008F929F92AF92BF92CF92DF92EF92FF92CA
:101E50000F931F93CF93DF93CDB7DEB7CA1BDB0B76
:101E60000FB6F894DEBF0FBECDBF09942A8839881B
:101E700048885F846E847D848C849B84AA84B98422
:101E8000C884DF80EE80FD800C811B81AA81B9812E
:101E9000CE0FD11D0FB6F894DEBF0FBECDBFED0142
:061EA0000895F894FFCF45
:101EA6000C12120C000000000C1204081E000000A8
:101EB6000A15110A040000000305090B0B18180087
:101EC6001F0E0E0404040404010105051515150072
:101ED6000E11111F1F1F1F00000000000000000050
:101EE600630408102040801A263D5566809ACDFF6F
:101EF600636308060402010063002D002A00200027
:101F06005800312E384D487A00332E354D487A0028
:101F16002020374D487A002031304D487A00203154
:101F2600344D487A002031384D487A002032314D00
:101F3600487A002032344D487A002032384D487AAB
:101F4600002035304D487A00C200C900D000D700C5
:101F5600DE00E500EC00F300FA00010143414E4EBD
:101F66004F54204348414E47452042414E44001CB1
:101F7600014155544F204D4F444520495320454E6D
:101F860041424C45440031011C0143414E4E4F54E1
:101F9600204348414E474520414E54454E4E410050
:101FA6004A015741524E494E47212042414E442054
:101FB6004348414E47454400620143414E4E4F540B
:101FC600204348414E47452050524F46494C450014
:101FD6007A0150524F46494C4520257300920144E0
:101FE6005552494E47205452414E534D4954009F35
:101FF6000141435449564154454400B1014E4F20D6
:10200600414E542100BD01414E5420434C4153489A
:102016002100C7014155544F204D4F444500D4017E
:102026004D414E55414C204D4F444500E00100EED8
:102036000142616E644D617374657200F101763020
:102046002E392E342062792053513247584F00FEE4
:10205600014453253032686858253034580A002523
:1020660063256325303268685825303468580A007D
:0C20760044504320534352574F41200078
:00000001FF
