:100000000C9430000C944D000C944D000C944D0059
:100010000C944D000C944D000C944D000C94730006
:100020000C944D000C944D000C944D000C944D001C
:100030000C944D000C944F000C944D000C944D000A
:100040000C944D000C944D000C944D000C944D00FC
:100050000C944D006364696E6F70737578585B0023
:1000600011241FBECFE5D8E0DEBFCDBF12E0A0E671
:10007000B0E0E0E2FFE102C005900D92AC33B107C1
:10008000D9F714E0ACE3B2E001C01D92A330B10790
:10009000E1F70E94AA000C948E0F0C9400001F92AE
:1000A0000F920FB60F9211242F933F934F935F93AC
:1000B0006F937F938F939F93AF93BF93EF93FF9330
:1000C0000E944707FF91EF91BF91AF919F918F9150
:1000D0007F916F915F914F913F912F910F900FBE44
:1000E0000F901F9018951F920F920FB60F92112428
:1000F0002F933F934F935F936F937F938F939F9330
:10010000AF93BF93EF93FF930E94A304FF91EF91EE
:10011000BF91AF919F918F917F916F915F914F911F
:100120003F912F910F900FBE0F901F9018958091C7
:100130005F03882331F48091660280933C028091B2
:1001400060030E9441070E94BF060E9432030E9482
:10015000F10508952F923F924F925F926F927F9296
:100160008F929F92AF92BF92CF92DF92EF92FF92C7
:100170000F931F93CF93DF930E9447040E943E0486
:100180000E9435040E94BF060E9458040E94670422
:1001900080E00E94B3020E94D8050E94F105809180
:1001A0006502813029F40E9496060E94980604C0D8
:1001B0000E949A060E9494060E94A406209078014C
:1001C00030907901C091AF01D091B00140906001B1
:1001D000509061016090EC017090ED01A090EF01F2
:1001E000B090F0018090DE019090DF01C090480156
:1001F000D0904901E0902F01F0903001009146012C
:1002000010914701809165028130E1F40E944B0515
:1002100090916C039336A1F080916602891769F082
:10022000B49905C0C101BE0142E00E949C058091C5
:100230006C03809366020E9497000E949C0602C095
:100240000E94A00680913F02813021F410923F026B
:1002500020E00FC080914002813021F410924002D2
:1002600021E007C080914102813049F5109241029E
:1002700022E08091660290E0FC01EE0FFF1FE80F84
:10028000F91FE859FD4FE20FF11DE752FF4F2081A2
:100290002336A9F0FC01EE59FC4F8081821779F0DA
:1002A000B49906C0C201BE0142E00E949C0507C08D
:1002B00020830E94BF060E9432030E94F1059091A4
:1002C00042029130F9F4109242028091650281302D
:1002D00059F482E0809365020E949C060E949A066F
:1002E0000E949406C30107C0909365020E9496067F
:1002F0000E949806C401B50142E00E949C050E943C
:10030000320339C0809144028130A9F41092440232
:1003100080916502823059F4B49B19C080916602C5
:10032000893010F48F5F1DC0109266021CC0C70197
:10033000B80143E01EC0809143028130E1F4109285
:10034000430280916502823089F4B49903C0C601EA
:10035000BE010EC080916602882311F0815001C059
:1003600089E0809366020E94970005C0C701B8012A
:1003700042E00E949C0580914502813021F4109258
:1003800045020E94F10580914602813031F41092BD
:1003900046020E94B6060E94F10580914702813014
:1003A00021F4109247020E94BF060E945A082ACFE9
:1003B00084B38F7084BBA99AA89881E08A95F1F7DD
:1003C00021E0AA9A822F8A95F1F783B3807F922F3A
:1003D0009A95F1F7AA98922F9A95F1F7AA9A922FE7
:1003E0009A95F1F793B3922F9A95F1F7AA98922FD5
:1003F0009A95F1F787FDE5CFA99884B3806F84BB08
:100400000895382F662311F4A89801C0A89A21E016
:10041000822F8A95F1F7AA9A85B3932F907F8F70D8
:10042000982B95BB822F8A95F1F7AA98822F8A95EF
:10043000F1F7AA9A85B33295307F8F70832B85BBF5
:10044000822F8A95F1F7AA982A95F1F70E94D80190
:100450000895CF93DF93EC0110C0853251F42196BB
:1004600088818053883028F085E261E00E94010293
:10047000888161E00E94010221968881882369F7C2
:10048000DF91CF910895EF92FF920F931F93DF9327
:10049000CF9300D000D00F92CDB7DEB79C018B0177
:1004A000FE01319685E0DF011D928A95E9F7FE0194
:1004B00035960DC0C9016AE070E00E94280980836A
:1004C000C9016AE070E00E9428099B01319721155B
:1004D000310581F7BFEF0F3F1B0779F420E030E0D3
:1004E000AE014F5F5F4F02C02F5F3F4FFA01E20F37
:1004F000F31F80818823C1F304C025E030E0201B76
:10050000310B7E010894E11CF11CE20EF31E8901FF
:1005100009C0F70181917F01805D61E00E940102C5
:100520000F5F1F4F05301105A4F30F900F900F9030
:100530000F900F90CF91DF911F910F91FF90EF904F
:100540000895883178F4623031F0633031F06130F1
:1005500029F4806403C0885E01C0885A806860E026
:100560000E94010208951F93182F80E395E70197D9
:10057000F1F784B3806F84BBA29AA09AA19A85B345
:100580008F7085BBAA98A998A89881E0982F9A9512
:10059000F1F7AA9AAD9A982F9A95F1F7AA988A95A9
:1005A000F1F70E94D8011C60812F60E00E940102D7
:1005B00088E260E00E94010280E060E00E94A10207
:1005C000812F60E00E9401021F91089580914A02EC
:1005D000882379F080916103882359F02091A0004D
:1005E000233639F090E080916602821719F491E089
:1005F00001C090E0892F0895E82F80914A02882356
:1006000061F0E33651F0F0E0EE0FFF1FE75EFC4FC4
:10061000E08180913D02E82301C0E0E08E2F089543
:100620001F93E0916602F0E0EE59FC4F1081133603
:10063000A9F00E94E602882389F480914A02882367
:1006400011F4E0E00CC0E12FF0E0EE0FFF1FE75ED9
:10065000FC4FE08180913D02E82309F0E1E08E2F1C
:100660001F9108958091670290E024E031E0829F1D
:10067000B001839F700D929F700D112466507F4FC3
:1006800082E693E04AE050E00E94240E85E091E08B
:10069000609165020E94340E86E091E060916602EE
:1006A0000E94340E84E091E0609167020E94340E53
:1006B0000895882309F042C088E692E060E070E087
:1006C00047E050E00E94240E8FE692E067E070E081
:1006D0004CE350E00E94240E8BEA92E063E470E069
:1006E0004EE650E00E94240E89E193E061EB70E059
:1006F00044E150E00E94240E8DE293E065EC70E04E
:1007000044E150E00E94240E81E493E069ED70E042
:100710004EE150E00E94240E88EF90E0609160036B
:100720000E94340E87EF90E060915F030E94340EC8
:1007300089EF90E0609161030E94340E08951F9349
:1007400088E692E060E070E047E050E00E940C0E26
:100750008FE692E067E070E04CE350E00E940C0E00
:100760008BEA92E063E470E04EE650E00E940C0EEB
:1007700089E193E061EB70E044E150E00E940C0EEF
:100780008DE293E065EC70E044E150E00E940C0ED5
:1007900081E493E069ED70E04EE150E00E940C0EC0
:1007A00082E693E06AEF70E04AE050E00E940C0EAF
:1007B00088EF90E00E941C0E8093600387EF90E02A
:1007C0000E941C0E80935F0389EF90E00E941C0E34
:1007D0008093610386E091E00E941C0E182F8093A5
:1007E000660280933C0285E091E00E941C0E80939B
:1007F00065021A3030F4E1E4F3E0DF01919623E67C
:1008000012C010926602F7CF22838C918A3010F0CA
:1008100080818C93992309F42C933396119683E06D
:10082000EF35F80791F080818A3010F491E002C032
:10083000208390E081818A3010F491E001C021830F
:1008400082818A3008F791E0E0CFE5EBF2E0A4E79F
:10085000B2E010821C923B96169683E0E332F807D2
:10086000C1F710926E021F91089584E091E00E94FA
:100870001C0E809367020E949F03089586B18560D5
:1008800086B93E9A359A3D9A379A369A089587B333
:10089000807E87BB88B38F6188BB81B3837081BB47
:1008A00082B38C6F82BB8AB38C6F8ABBA39A089584
:1008B0008EB588608EBD89B7806189BF78948FE3DB
:1008C0009CE99BBD8ABD8EB581608EBD08958AB1BD
:1008D00088618AB980B5866880BD10BC89E189B914
:1008E000579A78940895F89424E6829FC0011124C1
:1008F0009093500280934F0278940895982FF89423
:10090000882359F081E08093490284E6989FC001D2
:10091000112490934E0280934D0278940895F89498
:100920001092490210924E0210924D02789408954E
:10093000F89484EF91E090934C0280934B020E94D4
:10094000A60678940895CF93DF9380914902813071
:1009500061F5B4990AC09091660280913C029817A3
:1009600021F010924E0210924D0280914D02909112
:100970004E020097A9F4109249029091660280916C
:100980003C02981719F40E94AA060FC090933C02EB
:1009900081E080934702809160030E94410705C077
:1009A000019790934E0280934D02809151028F5F88
:1009B00080935102883C20F00E94B80810925102A6
:1009C00080914B0290914C02009781F00197909397
:1009D0004C0280934B02892B49F40E94A40610928A
:1009E0004A0281E080934602109260020E947C07D6
:1009F000C1EAD0E0AFE3B2E0E2E5F2E032E021E0CC
:100A000080B39881892379F48081918101969183C3
:100A100080838A30910511F42C9307C0883C91059E
:100A200021F43C9302C011821082219611963296D5
:100A300080E0C73AD80721F720914F023091500249
:100A40002115310561F02130310519F481E08093E1
:100A50004502215030403093500220934F02809144
:100A60005E028F5F80935E028E3131F48091480286
:100A7000882311F00E949A0680915E028C3341F423
:100A800010925E0280914802882311F00E9498061D
:100A9000DF91CF91089586B38F7011F483E601C082
:100AA000815080936C0380916C038A3088F095B1FB
:100AB000A7EAB0E0E0E08C91891720F4EF5F11968F
:100AC000E930C9F7F0E0E055FF4F808180936C0377
:100AD00080916C038A3018F083E680936C0308954C
:100AE000DF92EF92FF920F931F938B017A01D82E22
:100AF000DD0CDD0CDD0CCB010E941C0926E030E092
:100B0000A901481B5109CA0162E070E00E9428094E
:100B10008D2D860F61E00E94A102C7010E9429026B
:100B2000C8010E942902C7010E9429021F910F914A
:100B3000FF90EF90DF900895CF92DF92EF92FF92B7
:100B40000F931F93CF93DF93EC017B01C42E0E9480
:100B50001C09082F893118F5C7010E941C09182F9C
:100B60008931E8F481E060E00E94010206958CE0A2
:100B7000D82E8D2D801B60E00E94A102CE010E9424
:100B8000290216958D2D811B61E00E94A102C701EB
:100B90000E942902CC2019F08C2D0E947304DF9151
:100BA000CF911F910F91FF90EF90DF90CF9008951C
:100BB00081E060E00E94010260910F0270911002DA
:100BC0008091FC019091FD0140E00E949C0580E233
:100BD0009EE424E630E0F9013197F1F70197D9F767
:100BE0000895AF92BF92DF92EF92FF920F931F93FF
:100BF000DF93CF930F92CDB7DEB781E060E00E9424
:100C0000010280E060E00E94A10288E692E00E947A
:100C10002902E0916602F0E0EE59FC4FF08043E6D5
:100C2000F41629F40091C5011091C60110C08F2D52
:100C30000E94FC02882339F48BE0F89E8001112485
:100C400005551D4F04C00091D2011091D301C80178
:100C50000E941C092AE030E0F901E81BF109CF01EC
:100C600062E070E00E942809862F895F60E00E94A0
:100C7000A102C8010E94290282E160E00E94A10253
:100C8000E0916602F0E0EE0FFF1FE85FFE4F80810B
:100C900091810E94290200E010E066E0D62EE02E4D
:100CA0008091660290E0FC01EE0FFF1FE80FF91F34
:100CB000E00FF11FEF5BFC4F9081933631F4802FF2
:100CC00069EB70E04AEB50E01DC09F1529F44CEB36
:100CD000A42E40E0B42E04C03EEBA32E30E0B32E91
:100CE000892F99830E94FC029981882321F020ECAE
:100CF000A22E20E0B22E9D9DB001112461597D4F9E
:100D00008E2DA5010E9470050F5F1F4F0330110546
:100D100031F60F90CF91DF911F910F91FF90EF90DF
:100D2000DF90BF90AF900895DA9A0895DA98089509
:100D3000DB9A0895DB98089510924802DB9A089593
:100D400081E0809348020895DC9A0895DC98089524
:100D5000AB9A08950E941003813021F080914902DE
:100D6000813011F4AB9A0895AB9808950E94100356
:100D7000882319F40E94AA060895AB9A0895CF9388
:100D8000DF93AB9A0E94B808E0916602CE2FD0E0C4
:100D9000FE01EE0FFF1FE35DFC4F808191819C01FE
:100DA00040E050E0337040705070EAE0220F331F93
:100DB000441F551FEA95D1F781E090E000903C0276
:100DC00002C0880F991F0A94E2F7AA2797FDA09501
:100DD000BA2F282B392B4A2B5B2BCE59DC4FE881BD
:100DE000E336A1F0F0E0EE0FFF1FE75EFC4F8081DD
:100DF0009181A0E0B0E064E1880F991FAA1FBB1F9A
:100E00006A95D1F7282B392B4A2B5B2BF894DE9867
:100E100082E4982F9A95F1F7DF988A95F1F76FE1C0
:100E200070E0E2E4DA01C901062E04C0B695A79588
:100E3000979587950A94D2F781709070892B11F05D
:100E4000DD9A01C0DD988E2F8A95F1F7DE9A8E2FFC
:100E50008A95F1F7DE98615070408FEF6F3F780709
:100E600009F7DF9A88EC8A95F1F7DD98DF98789496
:100E700088E99AE30197F1F70E94B606DF91CF91D6
:100E80000895882319F0AB9A0E947E040895CF93A9
:100E9000DF939CB180916302823358F5E82FF0E034
:100EA000E359FC4F9083E82FEF5FE09363029A30A1
:100EB000D1F4809164028823B1F4ADE6B3E0CFE9C8
:100EC000D3E0F0E09F012A0F3B1F02C08D91899370
:100ED000A217B307D9F7E256FC4F108281E0809346
:100EE00064021092630280916302823310F01092C8
:100EF0006302DF91CF91089520916202222399F03D
:100F00005D9BFECF80916102E82FF0E0EF52FC4F35
:100F100090819CB98F5F80936102821721F41092B7
:100F200061021092620208955D9BFECF8CB9089514
:100F30000E947C07809162028823D1F70895582F80
:100F4000FB0190E004C08191851719F09F5F941711
:100F5000D0F3892F08950F931F93182F092F0E9404
:100F60001C09582FF89490E04091620222E330E08F
:100F7000241B310982179307A4F4812F902F9C0121
:100F8000D90120E00CC080916202E82FF0E0EF521E
:100F9000FC4F9D9190838F5F809362022F5F251796
:100FA00090F378941F910F9108951F93182F0E942A
:100FB0009807F8940E94980481E080934A027894FC
:100FC000123049F48FE993E00E941C09823059F4F1
:100FD000F894789408C0133031F0153021F48091E2
:100FE00067020E9459031F9108950F931F93DF9387
:100FF000CF9300D00F92CDB7DEB7882309F052C04F
:101000000FE913E0C8010E941C09883009F04AC0AA
:101010002DB73EB7285030400FB6F8943EBF0FBEF4
:101020002DBFEDB7FEB73196ADB7BEB712961C9384
:101030000E93119781E192E093838283CE01019612
:1010400095838483CE010296978386830E948009CC
:101050002DB73EB7285F3F4F0FB6F8943EBF0FBE87
:101060002DBF8230F9F449814A30E0F48091A0002C
:10107000841769F420913D0230913E028A819B8160
:101080002817390721F480914A02882319F481E056
:1010900080935F024093A0008A819B8190933E02DF
:1010A00080933D020F900F900F90CF91DF911F9191
:1010B0000F91089580916402882309F458C08FE944
:1010C00093E00E941C09823018F410926402089583
:1010D00080919F03843411F420E00DC0803511F419
:1010E00021E009C0833411F422E005C0803211F000
:1010F00024E001C023E04091A00330E091E0E32F21
:10110000F0E0EC5CFD4F8081841739F0892F8F5F10
:10111000883021F0392F982FF2CF932F213061F0B2
:10112000213020F0223041F080E00CC010926002AB
:10113000892F0E94F50705C020936002892F0E9425
:10114000D50781E010926402882339F0F8940E9458
:10115000980481E080934A02789480915F0288230A
:1011600031F00E94B6060E94F10510925F020895C8
:101170000F931F93DF93CF93CDB7DEB72A970FB6A8
:10118000F894DEBF0FBECDBF80916602482F50E0BD
:10119000FA01EE59FC4FE081E33619F420E030E02B
:1011A00007C0F0E0EE0FFF1FE75EFC4F20813181AA
:1011B0008DB79EB70E970FB6F8949EBF0FBE8DBF2A
:1011C000EDB7FEB731968E010F5F1F4FADB7BEB7BB
:1011D00012961C930E9311978AE090E0938382837A
:1011E0008FE192E09583848384E490E09783868303
:1011F00083E590E0918780875387428735872487EE
:101200000E944F098DB79EB70E960FB6F8949EBFF9
:101210000FBE8DBF80916002882319F4C8010E941F
:10122000AB072A960FB6F894DEBF0FBECDBFCF91A5
:10123000DF911F910F910895AC0120E001C02F5F55
:10124000FA01E20FF11D80818823C9F7822F0895EA
:1012500097FB092E07260AD077FD04D00CD006D0C4
:1012600000201AF4709561957F4F0895F6F79095D8
:1012700081959F4F0895AA1BBB1B51E107C0AA1F70
:10128000BB1FA617B70710F0A61BB70B881F991F27
:101290005A95A9F780959095BC01CD010895AEE0CF
:1012A000B0E0E5E5F9E00C94650F0D891E898F89A2
:1012B000988D97FF02C080E090E801979E838D8310
:1012C0001A83098386E08C839E01255E3F4FCE0101
:1012D0000196698D7A8DA9010E949A094D815E81DE
:1012E00057FD0AC02F813885421753070CF49A0125
:1012F000020F131FF80110822E96E4E00C94810F68
:10130000AEE0B0E0E6E8F9E00C94670F85E08C838E
:101310008B899C899A8389839E01295E3F4FCE01E8
:1013200001966D897E89A9010E94FB0C2E96E2E050
:101330000C94830FABE0B0E0E0EAF9E00C94570FB7
:101340003C012B015A01FC0117821682838181FD29
:1013500003C06FEF7FEFC6C19AE0892E1E0108948B
:10136000211C311CF3012381F20123FD859123FF10
:1013700081912F01882309F4B2C1853239F423FD0C
:10138000859123FF81912F01853229F490E0B301EB
:101390000E94B00EE7CF982FFF24EE249924FFE19E
:1013A000FF15D0F09B3269F09C3228F4903259F04E
:1013B000933291F40EC09D3249F0903369F441E0CC
:1013C00024C052E0F52A84E0F82A28C098E0F92ADF
:1013D00025C0E0E1FE2A22C0F7FC29C0892F8053F6
:1013E0008A3070F4F6FE05C0989C902C1124980E5B
:1013F00015C0E89CE02C1124E80EF0E2FF2A0EC094
:101400009E3229F4F6FC6BC140E4F42A07C09C36F6
:1014100019F450E8F52A02C0983649F4F20123FD88
:10142000959123FF91912F01992309F0B8CF892F2E
:101430008554833018F08052833038F444E050E013
:10144000A40EB51E5FE359830FC0933631F0933776
:1014500079F0933509F056C020C0F5018081898369
:1014600042E050E0A40EB51E610101E010E012C0A0
:10147000F501C080D180F6FC03C06FEF7FEF02C0A2
:10148000692D70E042E050E0A40EB51EC6010E9436
:10149000630E8C015FE7F52214C0F501C080D18096
:1014A000F6FC03C06FEF7FEF02C0692D70E042E0F1
:1014B00050E0A40EB51EC6010E94580E8C0150E8E3
:1014C000F52AF3FE07C01AC080E290E0B3010E9443
:1014D000B00EEA948E2D90E008171907A8F30EC0FD
:1014E000F601F7FC8591F7FE81916F0190E0B30161
:1014F0000E94B00EE110EA94015010400115110550
:1015000079F7EAC0943611F0993669F5F7FE08C00C
:10151000F501208131814281538184E090E00AC04D
:10152000F501808191819C01442737FD4095542F1E
:1015300082E090E0A80EB91E9FE6F92257FF09C08D
:1015400050954095309521953F4F4F4F5F4FE0E8C4
:10155000FE2ACA01B901A1012AE030E00E94F60E7C
:10156000D82ED21840C0953729F41F2D1F7E2AE0AF
:1015700030E01DC01F2D197F9F3661F0903720F499
:10158000983509F0ACC00FC0903739F0983709F0A2
:10159000A6C004C028E030E00AC0106114FD146049
:1015A00020E130E004C014FD166020E132E017FFB6
:1015B00008C0F501608171818281938144E050E02F
:1015C00008C0F50180819181BC0180E090E042E09B
:1015D00050E0A40EB51EA1010E94F60ED82ED2181E
:1015E0008FE7F82EF122F6FE0BC05EEFF522D9143C
:1015F00038F4F4FE07C0F2FC05C08FEEF82202C0FA
:101600001D2D01C0192DF4FE0DC0FE01ED0DF11DC3
:101610008081803319F499EEF92208C01F5FF2FE31
:1016200005C003C08F2D867809F01F5F0F2DF3FCD6
:1016300014C0F0FE0FC01E1510F09D2C0BC09D2C89
:101640009E0C911A1E2D06C080E290E0B3010E940C
:10165000B00E1F5F1E15C0F304C01E1510F4E11A72
:1016600001C0EE2404FF0FC080E390E0B3010E94AC
:10167000B00E02FF1DC001FD03C088E790E00EC060
:1016800088E590E00BC0802F867891F001FF02C0C2
:101690008BE201C080E2F7FC8DE290E0B3010E9492
:1016A000B00E06C080E390E0B3010E94B00E9A94A1
:1016B000D914C0F3DA94F101ED0DF11D808190E0B1
:1016C000B3010E94B00EDD20A9F706C080E290E0D1
:1016D000B3010E94B00EEA94EE20C1F743CEF301AD
:1016E00066817781CB012B96E2E10C94730FFC01AC
:1016F00020FD08C023FD05C022FF02C07383628362
:10170000518340830895EF92FF920F931F9344FFFC
:1017100002C033E011C046FF02C034E00DC0DB015F
:10172000FC01AA0FBB1FEE1FFF1F1094D1F76A0F19
:101730007B1F8E1F9F1F31E0660F771F881F991F29
:101740003150D1F77B018C01E20EF11C011D111DFE
:10175000A8019701B701CA011F910F91FF90EF9067
:1017600008950F931F93CF93DF938C01C8010E94BC
:101770006E0EEC0197FD08C00E94450E892BB1F753
:10178000CE01B8010E94DC0ECE01DF91CF911F91F6
:101790000F910895A0E0B0E0E0EDFBE00C945F0F46
:1017A000EC01C62E5A01122F0E946E0EAC018B3234
:1017B00019F08D3251F41068CA9409F46DC0CE014D
:1017C0000E946E0EAC0197FD67C06DEFD62ED12240
:1017D0008D2D807301F54033F1F4CA9409F447C0AC
:1017E000CE010E946E0EAC0197FD41C082E0D82A66
:1017F000483711F0483559F480E4D82ACA94B9F131
:10180000CE010E946E0EAC0199232CF430C0D6FCA0
:1018100002C080E1D82AEE24FF248701242F205320
:10182000283088F0D4FC09C02A3068F0D6FE05C004
:101830002F7D822F8151863028F0CA01BE010E947F
:10184000DC0E12C02750C801B7014D2D0E94830B3A
:101850007B018C0182E0D82ACA9461F0CE010E94FB
:101860006E0EAC0197FFDACFD1FC04C015C0EE2498
:10187000FF248701D7FE08C010950095F094E094EE
:10188000E11CF11C011D111DC501B801A7012D2D81
:101890000E94770B81E001C080E0CDB7DEB7EAE0BF
:1018A0000C947B0FA0E2B0E0E8E5FCE00C945B0F49
:1018B0006C01A62E8A017901FE01319680E2DF01DA
:1018C0001D928A95E9F770E030E060E040E050E07A
:1018D0004F01A1E0B0E0F6018381F70183FD25917E
:1018E00083FF21917F01222309F47EC02E3519F454
:1018F0004115510569F1872F90E08417950744F44D
:101900002D3551F12D3221F4332329F431E021C05A
:10191000332309F4622F322F832F8695869586957F
:10192000F401E80FF11D832F87703D0102C0660CA2
:10193000771C8A95E2F7208126292083361711F437
:1019400030E007C0361710F43F5FE6CF3150E4CFE8
:1019500071E04F5F5F4FBFCF332319F08E818062FC
:101960008E83772359F0FE0131969E012F5D3F4F04
:10197000808180958193E217F307D1F7BB24B3945C
:101980004E010894811C911CC6010E946E0EAC0190
:1019900097FD22C0869586958695F401E80FF11D86
:1019A000808190E09A012770307002C095958795EC
:1019B0002A95E2F780FD05C0CA01B6010E94DC0E3F
:1019C0000BC00115110519F0D8014D938D01AA9492
:1019D000BB24AA20C9F602C0BB2031F401151105B1
:1019E00029F0F801108202C0EE24FF24C701A0965E
:1019F000EEE00C94770FA0E0B0E0E1E0FDE00C94A5
:101A00005B0F5C016B013A01FC011782168288248E
:101A1000EAC0812F90E00E94450E892B21F0C5017C
:101A20000E94B10BE0C0153249F4F601F3FC659158
:101A3000F3FE61916F01653269F415E2C5010E9400
:101A40006E0E97FDDCC0181709F4CDC0B5010E94D9
:101A5000DC0EDAC06A3219F0162F00E006C0F3FC83
:101A60001591F3FE11916F0101E099240FC00260FE
:101A7000692D70E080E090E040E20E94830B962E9A
:101A8000F601F3FC1591F3FE11916F01212F205304
:101A90002A3068F301FD03C099249A9403C0992069
:101AA00009F4B2C0183621F01C3699F4F6010BC0C7
:101AB000F601F3FC6591F3FE6191683619F06F0150
:101AC000162F07C008600460F3FC1591F3FE119116
:101AD0006F01112309F498C084E590E0612F70E054
:101AE0000E944D0E892B09F48FC0802F00FF03C088
:101AF000EE24FF2407C0F301E080F18022E030E013
:101B0000620E731E1E3651F4F5014681578160E066
:101B100070E0C701202F0E94770B65C0133691F447
:101B200081FD02C099249394C5010E946E0E97FD19
:101B300066C0E114F10419F0F70181937F019A94D2
:101B400099F74FC01B3559F4C501692DA7019601BE
:101B50000E94520C6C01009709F043C03DC0C501C2
:101B60000E94B10B97FD4BC01F3659F1103728F476
:101B7000143629F1193639F527C0133719F01537FE
:101B800011F51DC0C5010E946E0EEC0197FD11C03C
:101B90000E94450E892B29F0CE01B5010E94DC0E72
:101BA00008C0E114F10419F0F701C1937F019A9480
:101BB00049F7E114F104A9F0F701108212C00062A4
:101BC00003C0006101C00064C501692DA701202F79
:101BD0000E94CA0B882329F4F5018381807379F46C
:101BE00013C000FF8394F501F380F601F3FC159117
:101BF000F3FE11916F01112309F00BCF05C088206E
:101C000019F42FEF3FEF02C0282D30E0C901CDB706
:101C1000DEB7EEE00C94770FDC01CB01FC01E1991B
:101C2000FECF06C0FFBBEEBBE09A31960DB20D921F
:101C300041505040B8F70895E199FECF9FBB8EBB4D
:101C4000E09A99278DB30895DC01A40FB51F415088
:101C5000504048F0CB01840F951F2E910E94350E05
:101C600041505040D0F70895262FE199FECF9FBBF9
:101C70008EBBE09A01970DB2021631F02DBB0FB664
:101C8000F894E29AE19A0FBE089591110DC1803245
:101C900019F089508550D0F70895FC01059006167B
:101CA00021F00020D9F7C00108953197CF010895A0
:101CB000FC010590615070400110D8F78095909517
:101CC0008E0F9F1F0895FC0161507040019001101C
:101CD000D8F7809590958E0F9F1F0895CF93DF932F
:101CE000EC014B8140FF1AC046FF0AC04F7B4B837B
:101CF0008E819F8101969F838E838A81282F2BC09E
:101D000042FF13C0E881F9818081282F332727FD06
:101D100030952115310529F440624B832FEF3FEFB9
:101D20001BC03196F983E88311C0EA85FB85CE019B
:101D300009959C0197FF0AC09B812F5F3F4F11F0CF
:101D400080E201C080E1892B8B83E8CF8E819F8167
:101D500001969F838E8330E0C901DF91CF91089572
:101D60000F931F93CF93DF938C01EB018B8181FF46
:101D70001BC082FF0DC02E813F818C819D81281761
:101D8000390764F4E881F9810193F983E88306C097
:101D9000E885F985802F0995892B31F48E819F8103
:101DA00001969F838E8302C00FEF1FEFC801DF9162
:101DB000CF911F910F9108959C01FB01838180FFBA
:101DC00011C086FD0FC09FEF2F3F390759F02283C6
:101DD00080648F7D83838681978101979783868333
:101DE00030E002C02FEF3FEFC9010895FA01AA27A2
:101DF000283051F1203181F1E8946F936E7F6E5F4E
:101E00007F4F8F4F9F4FAF4FB1E03ED0B4E03CD0FB
:101E1000670F781F891F9A1FA11D680F791F8A1FDE
:101E2000911DA11D6A0F711D811D911DA11D20D045
:101E300009F468943F912AE0269F11243019305DFF
:101E40003193DEF6CF010895462F4770405D4193F0
:101E5000B3E00FD0C9F7F6CF462F4F70405D4A333D
:101E600018F0495D31FD4052419302D0A9F7EACF05
:101E7000B4E0A6959795879577956795BA95C9F734
:101E800000976105710508959B01AC010A2E069427
:101E90005795479537952795BA95C9F7620F731FE0
:101EA000841F951FA01D08959927882708952F92B4
:101EB0003F924F925F926F927F928F929F92AF92DA
:101EC000BF92CF92DF92EF92FF920F931F93CF9327
:101ED000DF93CDB7DEB7CA1BDB0B0FB6F894DEBFBE
:101EE0000FBECDBF09942A88398848885F846E84E4
:101EF0007D848C849B84AA84B984C884DF80EE802E
:101F0000FD800C811B81AA81B981CE0FD11D0FB636
:101F1000F894DEBF0FBECDBFED010895F894FFCF5A
:101F20000C12120C000000000C1204081E0000002D
:101F30000A15110A040000000305090B0B1818000C
:101F40001F0E0E04040404040101050515151500F7
:101F50000E11111F1F1F1F000000000000000000D5
:101F6000630408102040801A263D5566809ACDFFF4
:101F7000636308060402010063002D002A002000AC
:101F80005800312E384D487A00332E354D487A00AE
:101F90002020374D487A002031304D487A002031DA
:101FA000344D487A002031384D487A002032314D86
:101FB000487A002032344D487A002032384D487A31
:101FC000002035304D487A00C200C900D000D7004B
:101FD000DE00E500EC00F300FA00010143414E4E43
:101FE0004F54204348414E47452042414E44001C37
:101FF000014155544F204D4F444520495320454EF3
:1020000041424C45440031011C0143414E4E4F5466
:10201000204348414E474520414E54454E4E4100D5
:102020004A015741524E494E47212042414E4420D9
:102030004348414E47454400620143414E4E4F5490
:10204000204348414E47452050524F46494C450099
:102050007A0150524F46494C452025730092014465
:102060005552494E47205452414E534D4954009FBA
:102070000141435449564154454400B1014E4F205B
:10208000414E542100BD01414E5420434C41534820
:102090002100C7014155544F204D4F444500D40104
:1020A0004D414E55414C204D4F444500E00100EE5E
:1020B0000142616E644D617374657200F1017630A6
:1020C0002E392E352062792053513247584F00FE69
:1020D000014453253032686858253034580A0025A9
:1020E00063256325303268685825303468580A0003
:0C20F00044504320534352574F412000FE
:00000001FF
